:100000000C9434000C9451000C9451000C94510049
:100010000C9451000C9451000C9451000C9451001C
:100020000C9451000C9451000C9451000C9451000C
:100030000C9451000C9451000C9451000C945100FC
:100040000C9451000C9451000C94EC000C94510051
:100050000C9451000C9451000C9451000C945100DC
:100060000C9451000C94510011241FBECFEFD8E026
:10007000DEBFCDBF11E0A0E0B1E0E8E6F2E002C0F3
:1000800005900D92A030B107D9F721E0A0E0B1E0D2
:1000900001C01D92A138B207E1F70E94AC000C9498
:1000A00032010C9400008AB18F778AB98BB18068D5
:1000B0008BB984B1807E84B985B18F6185B908958B
:1000C0004F990CC02FEF83EC99E021508040904075
:1000D000E1F700C0000085E50E94E50018990CC01A
:1000E0002FEF83EC99E0215080409040E1F700C071
:1000F000000084E40E94E50019990CC02FEF83EC06
:1001000099E0215080409040E1F700C000008CE46D
:100110000E94E5001A990CC02FEF83EC99E0215062
:1001200080409040E1F700C0000082E50E94E500B9
:100130001B9903C081E40E94E5001C990CC02FEFBD
:1001400083EC99E0215080409040E1F700C000002E
:1001500082E40E94E500089580E895E20E94BE00D6
:100160000E9453000E9460002FEF81EE94E0215026
:1001700080409040E1F700C00000F4CFA0E0B0E084
:10018000880F991FAA1FBB1F880F991FAA1FBB1F8B
:100190009C01AD01220F331F441F551F220F331F37
:1001A000441F551F60E074E284EF90E00E9410014C
:1001B000215031093093C5002093C40088E9809311
:1001C000C10086E08093C20008959091C00095FF21
:1001D000FCCF8093C60008951F920F920FB60F9226
:1001E00011248F93EF93FF93E0910001F0E0809151
:1001F000C600EF5FFE4F8083809100018F5F8F7795
:1002000080930001E0910001F0E0EF5FFE4F10826B
:10021000FF91EF918F910F900FBE0F901F90189547
:10022000A1E21A2EAA1BBB1BFD010DC0AA1FBB1FFA
:10023000EE1FFF1FA217B307E407F50720F0A21B6C
:10024000B30BE40BF50B661F771F881F991F1A94D9
:1002500069F760957095809590959B01AC01BD0103
:08026000CF010895F894FFCFCF
:00000001FF
