:100000000C9434000C9446000C9446000C9446006A
:100010000C9446000C9446000C9446000C94460048
:100020000C9446000C9446000C9446000C94F3008B
:100030000C9446000C9446000C9446000C94460028
:100040000C9446000C9446000C94DF000C9446007F
:100050000C9446000C9446000C9446000C94460008
:100060000C9446000C94460011241FBECFEFD8E03C
:10007000DEBFCDBF21E0A0E0B1E001C01D92A830FD
:10008000B207E1F70E94D5000C9426010C94000001
:100090008AB18F778AB98BB180688BB984B1807E41
:1000A00084B985B18F6185B908958091070188234E
:1000B00029F0809107018F5F8093070180910701EC
:1000C000843108F462C0109207014F990BC08091EF
:1000D0000601811107C085E50E941F0181E0809320
:1000E000060103C04F991092060118990BC0809128
:1000F0000501811107C084E40E941F0181E0809303
:10010000050103C018991092050119990BC080913F
:100110000401811107C08CE40E941F0181E08093DB
:10012000040103C01999109204011A990BC080911F
:100130000301811107C082E50E941F0181E08093C5
:10014000030103C01A99109203011B990BC08091FF
:100150000201811107C081E40E941F0181E08093A8
:10016000020103C01B99109202011C990BC08091DF
:100170000101811107C082E40E941F0181E0809388
:10018000010108951C9910920101089510928000B8
:100190008AE0809381008FEC97E0909389008093B0
:1001A000880082E080936F0008950E9404010E94FD
:1001B00048000E94C60078940E945500FDCF1F920F
:1001C0000F920FB60F9211248F938091C6008093E7
:1001D00000018091C00085FFFCCF8F910F900FBE72
:1001E0000F901F9018951F920F920FB60F92112427
:1001F0008F93809107018F5F809307018F910F90FC
:100200000FBE0F901F9018958AB18E7F8AB98AB160
:1002100082608AB91092C000E1ECF0E01082808127
:1002200088698083E2ECF0E01082808186608083C0
:1002300087E690E09093C5008093C4000895909164
:10024000C00095FFFCCF8093C6000895F894FFCFBF
:00000001FF
