S014000061746D6761636F6E74726F6C2E7372656305
S11300000C9434000C9446000C9446000C94460066
S11300100C9446000C9446000C9446000C94460044
S11300200C9446000C9446000C9446000C94460034
S11300300C9446000C9446000C9446000C94460024
S11300400C9446000C9446000C94B1000C944600A9
S11300500C9446000C9446000C9446000C94460004
S11300600C9446000C94460011241FBECFEFD8E038
S1130070DEBFCDBF21E0A0E0B1E001C01D92A13000
S1130080B207E1F70E94A1000C94E7000C94000071
S11300908AB18F778AB98BB180688BB984B1807E3D
S11300A084B985B18F6185B908954F990CC02FEF3C
S11300B083EC99E0215080409040E1F700C00000BB
S11300C085E50E94E00018990CC02FEF83EC99E0BD
S11300D0215080409040E1F700C0000084E40E9479
S11300E0E00019990CC02FEF83EC99E02150804077
S11300F09040E1F700C000008CE40E94E0001A99EF
S11301000CC02FEF83EC99E0215080409040E1F740
S113011000C0000082E50E94E0001B9903C081E456
S11301200E94E0001C990CC02FEF83EC99E0215051
S113013080409040E1F700C0000082E40E94E000AB
S113014008950E94C5000E9448000E9455002FEFA8
S113015081EE94E0215080409040E1F700C000001F
S1130160F4CF1F920F920FB60F9211248F938091A8
S1130170C600809300018091C00085FFFCCF8F9161
S11301800F900FBE0F901F9018958AB18E7F8AB979
S11301908AB182608AB91092C000E1ECF0E010826A
S11301A0808188698083E2ECF0E01082808186603F
S11301B0808387E690E09093C5008093C4000895FF
S11301C09091C00095FFFCCF8093C6000895F894E9
S10501D0FFCF5B
S9030000FC
